:100000000C945D000C9485000C9485000C94850084
:100010000C9485000C9485000C9485000C9485004C
:100020000C9485000C9485000C9485000C9485003C
:100030000C9485000C9485000C9485000C9485002C
:100040000C94F6020C9485000C9485000C948500A9
:100050000C9485000C9485000C9485000C9485000C
:100060000C9485000C94850000000008000201003B
:100070000003040700000000000000000000000072
:10008000250028002B0000000000240027002A0083
:10009000040404040404040402020202020203032E
:1000A0000303030301020408102040800102040836
:1000B00010200102040810206B0411241FBECFEF92
:1000C000D8E0DEBFCDBF11E0A0E0B1E0E0EDF9E0A7
:1000D00002C005900D92A633B107D9F721E0A6E33F
:1000E000B1E001C01D92A735B207E1F710E0CDE500
:1000F000D0E004C02197FE010E94E004CC35D10776
:10010000C9F70E9440030C94E6040C94000090E0B0
:10011000FC01EC55FF4F249180579F4FFC018491C7
:10012000882399F090E0880F991FFC01EA57FF4F50
:10013000A591B491FC01E458FF4F859194918FB73C
:10014000F894EC91E22BEC938FBF0895AF92BF929D
:10015000CF92DF92EF92FF920F931F93CF93DF9393
:100160006C017B018B01040F151FEB015E01AE18C2
:10017000BF08C017D10759F06991D601ED91FC91E4
:100180000190F081E02DC6010995892B79F7C50111
:10019000DF91CF911F910F91FF90EF90DF90CF9063
:1001A000BF90AF90089590E0FC01E859FF4F249173
:1001B000FC01EC55FF4F3491FC01E057FF4FE491F7
:1001C000EE23C9F0222339F0233001F1A8F42130C5
:1001D00019F1223029F1F0E0EE0FFF1FE458FF4F34
:1001E000A591B4918FB7F894EC91611126C0309528
:1001F0003E233C938FBF08952730A9F02830C9F0E3
:10020000243049F7809180008F7D03C08091800069
:100210008F7780938000DFCF84B58F7784BDDBCF6D
:1002200084B58F7DFBCF8091B0008F778093B00035
:10023000D2CF8091B0008F7DF9CF3E2BDACF3FB780
:10024000F89480913B0190913C01A0913D01B091C7
:100250003E0126B5A89B05C02F3F19F00196A11DB0
:10026000B11D3FBFBA2FA92F982F8827BC01CD0100
:10027000620F711D811D911D42E0660F771F881F5F
:10028000991F4A95D1F708958F929F92AF92BF928E
:10029000CF92DF92EF92FF926B017C010E941F01CF
:1002A0004B015C01C114D104E104F104B9F00E94D6
:1002B0001F01681979098A099B09683E7340810505
:1002C000910580F321E0C21AD108E108F10888EE17
:1002D000880E83E0981EA11CB11CE4CFFF90EF9024
:1002E000DF90CF90BF90AF909F908F90089508952A
:1002F00090E080E00895FC0101900020E9F731973B
:10030000AF01481B590BBC018FE391E00C94A60090
:10031000CF93DF93EC0160E08E810E94D30061E017
:100320008E810E94D30060E08E810E94D3008BE812
:1003300091E00197F1F7DF91CF910895CF92DF928D
:10034000EF92FF920F931F93CF93DF936C017C0189
:1003500087E0E80EF11CD0E0C0E0062F10E0B80105
:100360000C2E02C0759567950A94E2F76170F7014B
:1003700081917F010E94D3002196C430D10579F785
:10038000C601DF91CF911F910F91FF90EF90DF9009
:10039000CF900C948801CF92DF92EF92FF920F934F
:1003A0001F93CF93DF93EC01F62E642F8C810E9474
:1003B000D3008D818F3F19F060E00E94D3000F2D94
:1003C00010E08F8584FF25C06E0187E0C80ED11C28
:1003D000F12CE12CB8010E2C02C0759567950A949A
:1003E000E2F76170F60181916F010E94D300FFEF87
:1003F000EF1AFF0A88E0E816F10461F7CE01DF91F9
:10040000CF911F910F91FF90EF90DF90CF900C94C0
:100410008801B80184E0759567958A95E1F7CE016A
:100420000E949E016F2DCE01DF91CF911F910F9100
:10043000FF90EF90DF90CF900C949E0140E0682FEA
:100440008FE391E00C94CB01CF93DF93823029F4BA
:1004500090914E01986090934E01809352011092BA
:10046000530180E48093540180E18093550180E53D
:1004700080935601809143010E948700809144013E
:100480008F3F11F00E948700809145010E948700F4
:10049000CFE3D1E09E012F53314080914E0184FD86
:1004A0000AC084E090E02196281739073CF48E8139
:1004B0000E948700EFCF88E090E0F5CF8BE39DE0CE
:1004C0000197F1F760E0809143010E94D30060E062
:1004D000809145010E94D300809144018F3F19F023
:1004E00060E00E94D30080914E0184FD39C063E03A
:1004F0008FE391E00E949E01CBE4D6E4CE01019708
:10050000F1F763E08FE391E00E949E012197F1F7FC
:1005100063E08FE391E00E949E0183E592E0019702
:10052000F1F762E08FE391E00E949E0180914E011D
:1005300080620E941E0284E080934F018CE00E9442
:100540001E0281E00E941E028BE39FE10197F1F7FA
:1005500082E08093500186E0DF91CF910C941E02DF
:1005600080620E941E028BE496E40197F1F780916D
:100570004E0180620E941E0283E592E00197F1F72E
:1005800080914E0180620E941E02D0CF9091520154
:10059000891710F08FEF890FE82FF0E0E15CFE4F34
:1005A000848980680C941E0241E00E94CB0181E0A6
:1005B00090E008950F931F93CF93DF938B0128E072
:1005C000829FC001112480640E941E02E801085F1E
:1005D0001F4F69918FE391E00E94D402C017D107A9
:1005E000C1F7DF91CF911F910F9108951F920F9244
:1005F0000FB60F9211242F933F938F939F93AF9336
:10060000BF938091370190913801A0913901B09149
:100610003A013091360123E0230F2D3758F501962A
:10062000A11DB11D209336018093370190933801AD
:10063000A0933901B0933A0180913B0190913C0124
:10064000A0913D01B0913E010196A11DB11D809385
:100650003B0190933C01A0933D01B0933E01BF91BB
:10066000AF919F918F913F912F910F900FBE0F905F
:100670001F90189526E8230F0296A11DB11DD2CF19
:10068000789484B5826084BD84B5816084BD85B56D
:10069000826085BD85B5816085BD80916E00816079
:1006A00080936E001092810080918100826080931F
:1006B0008100809181008160809381008091800021
:1006C0008160809380008091B10084608093B1004C
:1006D0008091B00081608093B00080917A00846046
:1006E00080937A0080917A00826080937A00809172
:1006F0007A00816080937A0080917A00806880938C
:100700007A001092C10082E00E94240268E071E049
:1007100080E00E94DA0260E071E081E00E94DA028B
:1007200060E071E082E00E94DA0280E00E94C6028E
:1007300060E08FE391E00E94D4028CE191E00E949E
:100740007B0160E08FE391E00E94D40281E00E948F
:10075000C60287E291E00E947B0180E4D82E0BE381
:100760001FE188248A9493E0992EA12CB12C20E0DB
:10077000E22E20E0F22E8CE10E941E0266E970E07B
:1007800080E090E00E9444018CE10E941E0266E934
:1007900070E080E090E00E944401C3E0D0E08091EE
:1007A0004F018B7F80934F0188600E941E0264EF8F
:1007B00071E080E090E00E94440180914F01982F09
:1007C000946090934F018C600E941E0264EF71E070
:1007D00080E090E00E944401219709F7CBE0D0E04F
:1007E0008CE10E941E0266E970E080E090E00E94C9
:1007F00044012197A9F7C8E1D0E088E10E941E02D8
:1008000066E970E080E090E00E9444012197A9F73A
:10081000CBE0D0E08CE10E941E0266E970E080E04F
:1008200090E00E9444012197A9F768EE73E080E010
:1008300090E00E944401D0927C0080917A00806414
:1008400080937A0080917A0086FDFCCFD091780069
:10085000C091790081E00E941E02C8010197F1F762
:1008600064E873E080E090E00E94440180E00E9430
:10087000C60262E08FE391E00E94D40280E391E03F
:100880000E947B0183E391E00E947B0160E08FE3A3
:1008900091E00E94D402BC2FAD2F20E233E00E94F1
:1008A000D904A50194010E948904CA01B9016853C1
:1008B0007F4F8F4F9F4F0E94440181E00E94C602EC
:1008C00087E291E00E947B01E114F10409F453CF27
:1008D0000E94000050CFEFE3F1E01382128284E126
:1008E00091E09183808388E084838FEF858389E022
:1008F000868384E0878385E0808786E0818787E040
:1009000082871386148615861686178681E00C94D6
:100910002402052E97FB1EF400940E94A00457FDAC
:1009200007D00E94A80407FC03D04EF40C94A00446
:1009300050954095309521953F4F4F4F5F4F08950B
:1009400090958095709561957F4F8F4F9F4F08953B
:10095000A1E21A2EAA1BBB1BFD010DC0AA1FBB1FC3
:10096000EE1FFF1FA217B307E407F50720F0A21B35
:10097000B30BE40BF50B661F771F881F991F1A94A2
:1009800069F760957095809590959B01AC01BD01CC
:10099000CF010895A29FB001B39FC001A39F700D26
:1009A000811D1124911DB29F700D811D1124911D77
:1009B00008950E94CA04B7FF0895821B930B0895FF
:1009C000EE0FFF1F0590F491E02D0994F894FFCFEE
:1009D0000000021F020000000000041F1F040000AE
:1009E00000000000D402A600780177015541532091
:1009F0004D696B726F31004D333131393030340015
:060A00005B2000205D00F8
:00000001FF
