:100000000C945D000C9485000C9485000C94850084
:100010000C9485000C9485000C9485000C9485004C
:100020000C9485000C9485000C9485000C9485003C
:100030000C9485000C9485000C9485000C9485002C
:100040000C94FB020C9485000C9485000C948500A4
:100050000C9485000C9485000C9485000C9485000C
:100060000C9485000C94850000000008000201003B
:100070000003040700000000000000000000000072
:10008000250028002B0000000000240027002A0083
:10009000040404040404040402020202020203032E
:1000A0000303030301020408102040800102040836
:1000B00010200102040810202A0411241FBECFEFD3
:1000C000D8E0DEBFCDBF11E0A0E0B1E0EEE4F9E0A2
:1000D00002C005900D92AA34B107D9F721E0AAE435
:1000E000B1E001C01D92AB36B207E1F710E0CDE5FB
:1000F000D0E004C02197FE010E949F04CC35D107B7
:10010000C9F70E9445030C94A5040C94000090E0EC
:10011000FC01EC55FF4F249180579F4FFC018491C7
:10012000882399F090E0880F991FFC01EA57FF4F50
:10013000A591B491FC01E458FF4F859194918FB73C
:10014000F894EC91E22BEC938FBF089580E48093B8
:100150007C0080917A00806480937A0080917A009C
:1001600086FDFCCF80917800909179000895AF9240
:10017000BF92CF92DF92EF92FF920F931F93CF9394
:10018000DF936C017B018B01040F151FEB015E01F6
:10019000AE18BF08C017D10759F06991D601ED918B
:1001A000FC910190F081E02DC6010995892B79F72A
:1001B000C501DF91CF911F910F91FF90EF90DF90DC
:1001C000CF90BF90AF90089590E0FC01E859FF4FA9
:1001D0002491FC01EC55FF4F3491FC01E057FF4F97
:1001E000E491EE23C9F0222339F0233001F1A8F481
:1001F000213019F1223029F1F0E0EE0FFF1FE45811
:10020000FF4FA591B4918FB7F894EC91611126C07E
:1002100030953E233C938FBF08952730A9F02830B6
:10022000C9F0243049F7809180008F7D03C0809110
:1002300080008F7780938000DFCF84B58F7784BD77
:10024000DBCF84B58F7DFBCF8091B0008F7780931B
:10025000B000D2CF8091B0008F7DF9CF3E2BDACFA6
:100260003FB7F89480914F0190915001A0915101B6
:10027000B091520126B5A89B05C02F3F19F00196F9
:10028000A11DB11D3FBFBA2FA92F982F8827BC01F0
:10029000CD01620F711D811D911D42E0660F771F18
:1002A000881F991F4A95D1F708958F929F92AF9218
:1002B000BF92CF92DF92EF92FF926B017C010E947E
:1002C00030014B015C01C114D104E104F104B9F027
:1002D0000E943001681979098A099B09683E7340B8
:1002E0008105910580F321E0C21AD108E108F108E7
:1002F00088EE880E83E0981EA11CB11CE4CFFF900D
:10030000EF90DF90CF90BF90AF909F908F90089527
:10031000089590E080E00895CF93DF93EC0160E0D2
:100320008E810E94E40061E08E810E94E40060E022
:100330008E810E94E4008BE891E00197F1F7DF9154
:10034000CF910895CF92DF92EF92FF920F931F9378
:10035000CF93DF936C017C0187E0E80EF11CD0E0C5
:10036000C0E0062F10E0B8010C2E02C0759567950D
:100370000A94E2F76170F70181917F010E94E40025
:100380002196C430D10579F7C601DF91CF911F9135
:100390000F91FF90EF90DF90CF900C948C01CF9253
:1003A000DF92EF92FF920F931F93CF93DF93EC01B5
:1003B000F62E642F8C810E94E4008D818F3F19F00E
:1003C00060E00E94E4000F2D10E08F8584FF25C0BF
:1003D0006E0187E0C80ED11CF12CE12CB8010E2C67
:1003E00002C0759567950A94E2F76170F6018191F4
:1003F0006F010E94E400FFEFEF1AFF0A88E0E816A1
:10040000F10461F7CE01DF91CF911F910F91FF9021
:10041000EF90DF90CF900C948C01B80184E075953B
:1004200067958A95E1F7CE010E94A2016F2DCE015A
:10043000DF91CF911F910F91FF90EF90DF90CF90C0
:100440000C94A20140E0682F83E591E00C94CF0169
:10045000CF93DF93823029F490916201986090935A
:100460006201809366011092670180E480936801C5
:1004700080E18093690180E580936A018091570152
:100480000E948700809158018F3F11F00E948700E1
:10049000809159010E948700C3E5D1E09E01235558
:1004A00031408091620184FD0AC084E090E0219691
:1004B000281739073CF48E810E948700EFCF88E02F
:1004C00090E0F5CF8BE39DE00197F1F760E080913C
:1004D00057010E94E40060E0809159010E94E4000D
:1004E000809158018F3F19F060E00E94E4008091F4
:1004F000620184FD39C063E083E591E00E94A201BE
:10050000CBE4D6E4CE010197F1F763E083E591E017
:100510000E94A2012197F1F763E083E591E00E9438
:10052000A20183E592E00197F1F762E083E591E0B3
:100530000E94A2018091620180620E94220284E0F6
:10054000809363018CE00E94220281E00E942202DB
:100550008BE39FE10197F1F782E08093640186E0ED
:10056000DF91CF910C94220280620E9422028BE4E0
:1005700096E40197F1F78091620180620E94220265
:1005800083E592E00197F1F78091620180620E9419
:100590002202D0CF90916601691710F06FEF690FBA
:1005A000E62FF0E0ED5AFE4F9489890F80680C9495
:1005B000220241E00E94CF0181E090E008950F9374
:1005C0001F93CF93DF938B0128E0829FC0011124FA
:1005D00080640E942202E801085F1F4F699183E551
:1005E00091E00E94D902C017D107C1F7DF91CF91E6
:1005F0001F910F9108951F920F920FB60F92112421
:100600002F933F938F939F93AF93BF9380914B0111
:1006100090914C01A0914D01B0914E0130914A0151
:1006200023E0230F2D3758F50196A11DB11D20930E
:100630004A0180934B0190934C01A0934D01B093DC
:100640004E0180914F0190915001A0915101B091C4
:1006500052010196A11DB11D80934F01909350014D
:10066000A0935101B0935201BF91AF919F918F918F
:100670003F912F910F900FBE0F901F90189526E875
:10068000230F0296A11DB11DD2CF789484B582604C
:1006900084BD84B5816084BD85B5826085BD85B526
:1006A000816085BD80916E00816080936E001092A4
:1006B000810080918100826080938100809181001F
:1006C00081608093810080918000816080938000B0
:1006D0008091B10084608093B1008091B00081600E
:1006E0008093B00080917A00846080937A0080913A
:1006F0007A00826080937A0080917A008160809392
:100700007A0080917A00806880937A001092C1000C
:1007100082E00E94280268E271E080E00E94DF022D
:1007200060E271E081E00E94DF0268E171E082E056
:100730000E94DF0260E171E083E00E94DF0268E076
:1007400071E084E00E94DF0260E071E085E00E94D9
:10075000DF0260E080E00E94CA0242E050E06CE309
:1007600071E083E591E00E94B7004AE050E06FE35A
:1007700071E083E591E00E94B70061E083E591E0DC
:100780000E94D90288248A9483E0982EA12CB12C4F
:10079000C0E0D0E00E94A6007C0160E082E00E9400
:1007A000CA0260E083E591E00E94D90220E233E0D2
:1007B000D7010E949804A50194010E944804690190
:1007C0007A0188ECC80ED11CE11CF11CC701B601EE
:1007D0000E94550160E082E00E94CA0265E083E564
:1007E00091E00E94D902C701B6010E9455010E9402
:1007F000A6007C0161E084E00E94CA0263E083E518
:1008000091E00E94D90220E233E0D7010E949804CF
:10081000A50194010E94480469017A0188ECC80E80
:10082000D11CE11CF11CC701B6010E94550161E019
:1008300084E00E94CA0264E083E591E00E94D9024C
:10084000C701B6010E945501209709F4A3CF0E9469
:100850000000A0CFE3E5F1E01382128284E391E08F
:100860009183808388E084838FEF858389E086830A
:1008700084E0878385E0808786E0818787E08287C0
:100880001386148615861686178681E00C94280236
:10089000052E97FB1EF400940E945F0457FD07D0BD
:1008A0000E94670407FC03D04EF40C945F0450953B
:1008B0004095309521953F4F4F4F5F4F089590954C
:1008C0008095709561957F4F8F4F9F4F0895A1E25E
:1008D0001A2EAA1BBB1BFD010DC0AA1FBB1FEE1FBA
:1008E000FF1FA217B307E407F50720F0A21BB30B05
:1008F000E40BF50B661F771F881F991F1A9469F781
:1009000060957095809590959B01AC01BD01CF01DC
:100910000895A29FB001B39FC001A39F700D811DD8
:100920001124911DB29F700D811D1124911D0895F8
:100930000E948904B7FF0895821B930B0895EE0F60
:0E094000FF1F0590F491E02D0994F894FFCF6D
:10094E0000000A0E0E040000040A04150E04040A28
:10095E00040A04040E15040A00000A0000000E1119
:10096E0000000A0000110E00000A1F1F1F0E0400D7
:10097E0000000000D902B70089018801492000203B
:0A098E0041726475696E6F2120004C
:107E0000112484B714BE81FFF0D085E080938100F7
:107E100082E08093C00088E18093C10086E0809377
:107E2000C20080E18093C4008EE0C9D0259A86E02C
:107E300020E33CEF91E0309385002093840096BBD3
:107E4000B09BFECF1D9AA8958150A9F7CC24DD24C4
:107E500088248394B5E0AB2EA1E19A2EF3E0BF2EE7
:107E6000A2D0813461F49FD0082FAFD0023811F036
:107E7000013811F484E001C083E08DD089C08234E0
:107E800011F484E103C0853419F485E0A6D080C0E4
:107E9000853579F488D0E82EFF2485D0082F10E0AE
:107EA000102F00270E291F29000F111F8ED06801E7
:107EB0006FC0863521F484E090D080E0DECF843638
:107EC00009F040C070D06FD0082F6DD080E0C81688
:107ED00080E7D80618F4F601B7BEE895C0E0D1E017
:107EE00062D089930C17E1F7F0E0CF16F0E7DF06D8
:107EF00018F0F601B7BEE89568D007B600FCFDCFD4
:107F0000A601A0E0B1E02C9130E011968C91119780
:107F100090E0982F8827822B932B1296FA010C0160
:107F200087BEE89511244E5F5F4FF1E0A038BF0790
:107F300051F7F601A7BEE89507B600FCFDCF97BE46
:107F4000E89526C08437B1F42ED02DD0F82E2BD052
:107F50003CD0F601EF2C8F010F5F1F4F84911BD097
:107F6000EA94F801C1F70894C11CD11CFA94CF0C13
:107F7000D11C0EC0853739F428D08EE10CD085E9AC
:107F80000AD08FE07ACF813511F488E018D01DD067
:107F900080E101D065CF982F8091C00085FFFCCF94
:107FA0009093C60008958091C00087FFFCCF809118
:107FB000C00084FD01C0A8958091C6000895E0E648
:107FC000F0E098E1908380830895EDDF803219F02E
:107FD00088E0F5DFFFCF84E1DECF1F93182FE3DFCA
:107FE0001150E9F7F2DF1F91089580E0E8DFEE27F6
:047FF000FF270994CA
:027FFE00040479
:0400000300007E007B
:00000001FF
