:100000000C945D000C9485000C9485000C94850084
:100010000C9485000C9485000C9485000C9485004C
:100020000C9485000C9485000C9485000C9485003C
:100030000C9485000C9485000C9485000C9485002C
:100040000C9454030C9485000C9485000C9485004A
:100050000C9485000C9485000C9485000C9485000C
:100060000C9485000C94850000000008000201003B
:100070000003040700000000000000000000000072
:10008000250028002B0000000000240027002A0083
:10009000040404040404040402020202020203032E
:1000A0000303030301020408102040800102040836
:1000B0001020010204081020FA0411241FBECFEF03
:1000C000D8E0DEBFCDBF11E0A0E0B1E0E4E8FAE0A7
:1000D00002C005900D92AA35B107D9F721E0AAE533
:1000E000B1E001C01D92AB37B207E1F710E0CDE5FA
:1000F000D0E004C02197FE010E943A05CC35D1071B
:10010000C9F70E949E030C9440050C94000090E0F7
:10011000FC01EC55FF4F249180579F4FFC018491C7
:10012000882399F090E0880F991FFC01EA57FF4F50
:10013000A591B491FC01E458FF4F859194918FB73C
:10014000F894EC91E22BEC938FBF0895AF92BF929D
:10015000CF92DF92EF92FF920F931F93CF93DF9393
:100160006C017B018B01040F151FEB015E01AE18C2
:10017000BF08C017D10759F06991D601ED91FC91E4
:100180000190F081E02DC6010995892B79F7C50111
:10019000DF91CF911F910F91FF90EF90DF90CF9063
:1001A000BF90AF90089590E0FC01E859FF4F249173
:1001B000FC01EC55FF4F3491FC01E057FF4FE491F7
:1001C000EE23C9F0222339F0233001F1A8F42130C5
:1001D00019F1223029F1F0E0EE0FFF1FE458FF4F34
:1001E000A591B4918FB7F894EC91611126C0309528
:1001F0003E233C938FBF08952730A9F02830C9F0E3
:10020000243049F7809180008F7D03C08091800069
:100210008F7780938000DFCF84B58F7784BDDBCF6D
:1002200084B58F7DFBCF8091B0008F778093B00035
:10023000D2CF8091B0008F7DF9CF3E2BDACF3FB780
:10024000F89480915F0190916001A0916101B0915B
:10025000620126B5A89B05C02F3F19F00196A11D8C
:10026000B11D3FBFBA2FA92F982F8827BC01CD0100
:10027000620F711D811D911D42E0660F771F881F5F
:10028000991F4A95D1F708958F929F92AF92BF928E
:10029000CF92DF92EF92FF924B015C010E941F010F
:1002A0006B017C010E941F016C197D098E099F0959
:1002B000683E734081059105A8F321E0821A9108F8
:1002C000A108B10888EEC80E83E0D81EE11CF11C1D
:1002D00081149104A104B10429F7FF90EF90DF90FD
:1002E000CF90BF90AF909F908F900895089590E029
:1002F00080E008958F929F92AF92BF920F931F93C9
:10030000CF93DF93CDB7DEB7A1970FB6F894DEBFDA
:100310000FBECDBF19A2423008F44AE08E010F5D36
:100320001F4F842E912CB12CA12CA50194010E9469
:100330001805E62FB901CA01EA3044F5E05DD8019D
:10034000EE938D01232B242B252B79F790E080E071
:10035000109769F0FD0101900020E9F73197AF0196
:100360004A1B5B0BBD0183E691E00E94A600A196AB
:100370000FB6F894DEBF0FBECDBFDF91CF911F91B6
:100380000F91BF90AF909F908F900895E95CD7CF69
:10039000FC0101900020E9F73197AF01481B590B90
:1003A000BC0183E691E00C94A600CF93DF93EC01AF
:1003B00060E08E810E94D30061E08E810E94D300B4
:1003C00060E08E810E94D3008BE891E00197F1F705
:1003D000DF91CF910895CF92DF92EF92FF920F932A
:1003E0001F93CF93DF936C017C0187E0E80EF11C33
:1003F000D0E0C0E0062F10E0B8010C2E02C07595C9
:1004000067950A94E2F76170F70181917F010E947C
:10041000D3002196C430D10579F7C601DF91CF9181
:100420001F910F91FF90EF90DF90CF900C94D5012A
:10043000CF92DF92EF92FF920F931F93CF93DF93B0
:10044000EC01F62E642F8C810E94D3008D818F3FAA
:1004500019F060E00E94D3000F2D10E08F8584FF1B
:1004600025C06E0187E0C80ED11CF12CE12CB8012B
:100470000E2C02C0759567950A94E2F76170F6013B
:1004800081916F010E94D300FFEFEF1AFF0A88E00D
:10049000E816F10461F7CE01DF91CF911F910F9122
:1004A000FF90EF90DF90CF900C94D501B80184E0DD
:1004B000759567958A95E1F7CE010E94EB016F2D46
:1004C000CE01DF91CF911F910F91FF90EF90DF90C0
:1004D000CF900C94EB0140E0682F83E691E00C9400
:1004E0001802E3E6F1E08089982F9460908B8C608D
:1004F0000C946B02CF93DF93823029F490917201B8
:10050000986090937201809376011092770180E455
:100510008093780180E18093790180E580937A016E
:10052000809167010E948700809168018F3F11F0E0
:100530000E948700809169010E948700C3E6D1E094
:100540009E01235631408091720184FD0AC084E0EF
:1005500090E02196281739073CF48E810E9487008D
:10056000EFCF88E090E0F5CF8BE39DE00197F1F7C6
:1005700060E0809167010E94D30060E08091690192
:100580000E94D300809168018F3F19F060E00E94C3
:10059000D3008091720184FD38C063E083E691E06E
:1005A0000E94EB01CBE4D6E4CE010197F1F763E0C2
:1005B00083E691E00E94EB012197F1F763E083E687
:1005C00091E00E94EB0183E592E00197F1F762E090
:1005D00083E691E00E94EB018091720180620E94AB
:1005E0006B0284E0809373010E94710281E00E949B
:1005F0006B028BE39FE10197F1F782E08093740136
:1006000086E0DF91CF910C946B0280620E946B02B6
:100610008BE496E40197F1F78091720180620E9469
:100620006B0283E592E00197F1F78091720180629D
:100630000E946B02D1CF90917601691710F06FEF95
:10064000690FE62FF0E0ED59FE4F9489890F80681D
:100650000C946B02E3E6F1E080898B7F808B8860ED
:100660000C946B0241E00E94180281E090E0089532
:100670000F931F93CF93DF938B0128E0829FC001DC
:10068000112480640E946B02E801085F1F4F69918A
:1006900083E691E00E943203C017D107C1F7DF91D2
:1006A000CF911F910F9108951F920F920FB60F9245
:1006B00011242F933F938F939F93AF93BF93809178
:1006C0005B0190915C01A0915D01B0915E01309160
:1006D0005A0123E0230F2D3758F50196A11DB11DB6
:1006E00020935A0180935B0190935C01A0935D017C
:1006F000B0935E0180915F0190916001A0916101D2
:10070000B09162010196A11DB11D80935F0190938C
:100710006001A0936101B0936201BF91AF919F917D
:100720008F913F912F910F900FBE0F901F901895B2
:1007300026E8230F0296A11DB11DD2CF789484B56F
:10074000826084BD84B5816084BD85B5826085BDCD
:1007500085B5816085BD80916E00816080936E005B
:10076000109281008091810082608093810080914D
:1007700081008160809381008091800081608093FE
:1007800080008091B10084608093B1008091B000BE
:1007900081608093B00080917A00846080937A00B9
:1007A00080917A00826080937A0080917A008160E3
:1007B00080937A0080917A00806880937A0010920A
:1007C000C10082E00E947A0260E171E080E00E9454
:1007D000380368E071E081E00E94380360E071E076
:1007E00082E00E9438030BE31FE190E0A92E90E025
:1007F000B92E60E082E00E941B0360E083E691E096
:100800000E94320384E291E00E94C80160E083E626
:1008100091E00E94320361E080E00E941B0380E3CC
:1008200091E00E94C8016CED75E080E090E00E94CC
:100830004401C0E1D0E088E10E946B0268EE73E001
:1008400080E090E00E9444012197A9F7C0E2D0E047
:100850008CE10E946B0268EE73E080E090E00E9401
:1008600044012197A9F7C0E1D0E088E10E946B0222
:1008700068EE73E080E090E00E9444012197A9F7C0
:100880000E94710268EE73E080E090E00E944401F3
:100890000E942A0368EE73E080E090E00E94440129
:1008A0000E94710268EE73E080E090E00E944401D3
:1008B0000E942A0368EE73E080E090E00E94440109
:1008C0000E94710268EE73E080E090E00E944401B3
:1008D0000E942A0368EE73E080E090E00E944401E9
:1008E0000E94710268EE73E080E090E00E94440193
:1008F00081E00E946B02C8010197F1F764E873E0A0
:1009000080E090E00E94440160E086E00E941B03CA
:1009100082E491E00E94C80160E087E00E941B032E
:1009200084E491E00E94C80160E089E00E941B031A
:1009300087E491E00E94C80161E080E00E941B030F
:1009400089E491E00E94C80168EE73E080E090E0E5
:100950000E944401C12CD12C7601C394C601817040
:10096000992760E0892BC1F585E00E941B0361E0B7
:1009700083E691E00E94320360E08AE00E941B035C
:1009800061E083E691E00E94320360E087E00E942C
:100990001B034AE0C701B6010E947A0168EE73E0CA
:1009A00080E090E00E9444018FEFC81AD80AE80A5C
:1009B000F80A8DE3C816D104E104F10479F664EF76
:1009C00071E080E090E00E944401A114B10409F4B8
:1009D00010CF0E9400000DCF85E00E941B0362E053
:1009E00083E691E00E94320360E08AE00E941B03EC
:1009F00062E0C7CFE3E6F1E0138212828CE191E07E
:100A00009183808388E084838FEF858389E0868368
:100A100084E0878385E0808786E0818787E082871E
:100A20001386148615861686178681E00C947A0242
:100A3000A1E21A2EAA1BBB1BFD010DC0AA1FBB1FE2
:100A4000EE1FFF1FA217B307E407F50720F0A21B54
:100A5000B30BE40BF50B661F771F881F991F1A94C1
:100A600069F760957095809590959B01AC01BD01EB
:100A7000CF010895EE0FFF1F0590F491E02D09942A
:040A8000F894FFCF18
:100A8400040E0E0E1F000800040E0E0E1F000200BE
:100A9400000E1B1E1C1F0E00000000003203A600E7
:100AA40077017601204841452047555953212000BC
:100AB4002042414E47554E21204D554C554E47211D
:100AC40020005B003020005D0042414E47554E211E
:0A0AD40020204D554C554E472100DF
:107E0000112484B714BE81FFF0D085E080938100F7
:107E100082E08093C00088E18093C10086E0809377
:107E2000C20080E18093C4008EE0C9D0259A86E02C
:107E300020E33CEF91E0309385002093840096BBD3
:107E4000B09BFECF1D9AA8958150A9F7CC24DD24C4
:107E500088248394B5E0AB2EA1E19A2EF3E0BF2EE7
:107E6000A2D0813461F49FD0082FAFD0023811F036
:107E7000013811F484E001C083E08DD089C08234E0
:107E800011F484E103C0853419F485E0A6D080C0E4
:107E9000853579F488D0E82EFF2485D0082F10E0AE
:107EA000102F00270E291F29000F111F8ED06801E7
:107EB0006FC0863521F484E090D080E0DECF843638
:107EC00009F040C070D06FD0082F6DD080E0C81688
:107ED00080E7D80618F4F601B7BEE895C0E0D1E017
:107EE00062D089930C17E1F7F0E0CF16F0E7DF06D8
:107EF00018F0F601B7BEE89568D007B600FCFDCFD4
:107F0000A601A0E0B1E02C9130E011968C91119780
:107F100090E0982F8827822B932B1296FA010C0160
:107F200087BEE89511244E5F5F4FF1E0A038BF0790
:107F300051F7F601A7BEE89507B600FCFDCF97BE46
:107F4000E89526C08437B1F42ED02DD0F82E2BD052
:107F50003CD0F601EF2C8F010F5F1F4F84911BD097
:107F6000EA94F801C1F70894C11CD11CFA94CF0C13
:107F7000D11C0EC0853739F428D08EE10CD085E9AC
:107F80000AD08FE07ACF813511F488E018D01DD067
:107F900080E101D065CF982F8091C00085FFFCCF94
:107FA0009093C60008958091C00087FFFCCF809118
:107FB000C00084FD01C0A8958091C6000895E0E648
:107FC000F0E098E1908380830895EDDF803219F02E
:107FD00088E0F5DFFFCF84E1DECF1F93182FE3DFCA
:107FE0001150E9F7F2DF1F91089580E0E8DFEE27F6
:047FF000FF270994CA
:027FFE00040479
:0400000300007E007B
:00000001FF
